:020000040800F2
:10000000500C002071020008412E0008F126000863
:100010003D2E0008B5090008B535000800000000B5
:100020000000000000000000000000006D33000828
:10003000A50C000800000000452E000871330008E0
:100040008B0200088B0200088B0200088B0200085C
:100050008B0200088B020008A90C0008B10C0008F4
:100060008B0200088B020008B90C00088B02000804
:100070008B0200088B0200088B0200088B0200082C
:100080008B0200088B0200088B02000800000000B1
:100090000000000000000000000000008B020008CB
:1000A0008B0200088B0200088B0200088B020008FC
:1000B0008B0200088B0200088B0200088B020008EC
:1000C0008B0200088B0200088B0200088B020008DC
:1000D0008B0200088B0200088B0200080000000061
:1000E0008B0200088B0200088B0200080000000051
:1000F0000000000000000000000000008B0200086B
:10010000000000008B0200088B0200088B02000830
:1001100000000000000000000000000000000000DF
:100120008B0200088B0200088B0200088B0200087B
:100130008B0200080000000000000000000000002A
:100140000000000000000000000000008B0200081A
:100150008B0200088B0200088B0200088B0200084B
:100160008B0200088B020008000000000000000065
:10017000000000000000000000000000000000007F
:10018000000000008B0200080000000000000000DA
:100190008B02000800F002F800F05AF814A696E866
:1001A000000CB244B344DA4501D100F051F8BAE88A
:1001B0000F000FA696E83000A5EB040504EB060738
:1001C000AAEB0704A7F101074FEA15154FEA34140B
:1001D000A4F10104AC4201D300F03AF813F0010F8E
:1001E00018BFFB1A43F0010300F001F8DBE71847E2
:1001F000B04F0000D04F0000103A24BF78C878C13B
:10020000FAD8520724BF30C830C144BF04680C601C
:1002100070470000704700000023002400250026DE
:10022000103A28BF78C1FBD8520728BF30C148BF59
:100230000B607047642900F01781732900F049832F
:10024000002070471FB503F000FD1FBD10B510BDA5
:1002500000F075FB1146FFF7F5FF03F0ADF900F074
:1002600093FB03B4FFF7F2FF03BC00F09BFB00001D
:100270000948804709480047FEE7FEE7FEE7FEE73A
:10028000FEE7FEE7FEE7FEE7FEE7FEE70448054976
:10029000054A064B704700007533000895010008B9
:1002A00050060020500C002050080020500800206C
:1002B00053EA020C00F069802DE9F04B4FF0000684
:1002C000002B1FBFB3FA83F503FA05F424FA05F6F1
:1002D0005E4012BF1643B2FA82F502FA05F4C5F188
:1002E00020051EBF22FA05FC44EA0C04203556EA1C
:1002F000044C4FEA144418BF641C4FF000084FF040
:100300000009904271EB030C39D3002919BFB1FAEF
:1003100081F701FA07F6B0FA80F700FA07F6C7F19D
:1003200020071EBF20FA07FC46EA0C062037B6FB62
:10033000F4FCA7EB0507103F07F01F0BCBF12006DD
:100340002CFA06F60CFA0BFB44BFB3460026202F0E
:10035000A4BF5E464FF0000B5BEA060C08BF4FF0EF
:10036000010B19EB0B0948EB0608ABFB027C06FB03
:1003700002CC0BFB03CCC01B71EB0C01C1E70B469D
:10038000024641464846BDE8F08B13B5084318BF06
:100390004FF0FF300146AFF30080BDE81C407047CE
:1003A0000FB41CB5074B06AA7B446946009005981C
:1003B00000F065FA0020694600F074FA1CBC5DF894
:1003C00014FB0000F904000070B50446856900685C
:1003D000C10601D5302600E02026C00707D070BD39
:1003E000D4E9012130469047206A401C20626D1EEE
:1003F000F6D570BD70B5044685690078C00707D191
:1004000070BDD4E9012120209047206A401C206261
:100410006D1EF6D570BD70B50C460546012A05D097
:100420002878800600D5EA69002302E0012305E070
:100430005B1C934202D2E05C0028F9D1A869E6185F
:10044000C01AA861286A184428622846FFF7BCFF32
:1004500004E0D5E9012114F8010B9047B442F8D328
:100460002846FFF7C7FF70BD2DE9F041064600247E
:1004700010687529314616A510D0AFF3008000280A
:1004800002DA404213A507E031688A0701D512A5B8
:1004900002E0490704D511A5012401E0AFF3008073
:1004A00000210A2206F1240709E0B0FBF2FCB0FBB0
:1004B000F2F302FB1C00303078541846491C002827
:1004C000F3D123462A463046BDE8F04100F079B921
:1004D000000000002D0000002B00000020000000A4
:1004E0002DE9F05F894604464FF0000ADFF824B199
:1004F000FB44C0F820A02046E168884700287DD052
:10050000252806D0D4E901219047206A401C2062AA
:10051000F1E700255F462046E16888472028064627
:1005200007DB312E05D2B81910F8200C08B10543AD
:10053000F1E7A80701D525F00405C4F81CA00027A1
:10054000C4F818A02A2E09D0304603F077FB38B340
:1005500004EB8708303EC8F8186019E059F8041B0E
:10056000204604EB87029161E1688847012F064627
:1005700018D1E069002820DA25F020051DE0D8F820
:10058000180000EB800006EB40003038C8F8180077
:100590002046E1688847064603F050FB0028EED16C
:1005A000012F0AD02E2E08D12046E16888477F1CF3
:1005B0000646022F45F02005C4DBA069002803DAB7
:1005C000404245F00105A061E80701D025F0100583
:1005D000A6B1A6F14100192802D8203645F40065DD
:1005E0004A463146204625604D46FFF723FE60B15E
:1005F000012807D0ED1D25F0070000E007E000F11D
:10060000080978E705F1040975E730467AE7206ABA
:10061000BDE8F09F7037000010B5431C02E010F8F1
:10062000011B71B18107FAD14FF0013202C88C1A57
:100630008C4314EAC211F9D0C01A0A0603D0C01EB6
:1006400010BDC01A10BD0A0401D0801E10BD0902E1
:10065000FCD0401E10BD032A40F2308010F0030C85
:1006600000F0158011F8013BBCF1020F624498BF05
:1006700011F801CB00F8013B38BF11F8013BA2F1A2
:10068000040298BF00F801CB38BF00F8013B11F01D
:10069000030300F02281083AC0F0088051F8043BBF
:1006A000083A51F804CBA0E80810F5E7121D5CBF2A
:1006B00051F8043B40F8043BAFF30080D20724BF5D
:1006C00011F8013B11F801CB48BF11F8012B24BFF1
:1006D00000F8013B00F801CB48BF00F8012B704740
:1006E00002F0FF0343EA032242EA024200F002B8AA
:1006F0004FF0000200B5134694469646203922BFBB
:10070000A0E80C50A0E80C50B1F12001BFF4F7AF05
:10071000090728BFA0E80C5048BF0CC05DF804EBE7
:10072000890028BF40F8042B08BF704748BF20F855
:10073000022B11F0804F18BF00F8012B704700000A
:1007400030B44FF0013C50F8042B51F8043BCCFA84
:1007500052F4D51A20D1FCB950F8042B51F8043BBF
:10076000CCFA52F4D51A17D1B4B950F8042B51F879
:10077000043BCCFA52F4D51A0ED16CB950F8042BC4
:1007800051F8043BCCFA52F4D51A05D1002CDAD03A
:1007900030BC4FF00000704729BAB1FA81F111F076
:1007A0001801D1F120008440F2D1CA40CB4012F0B0
:1007B000FF0213F0FF0330BCD01A70477047704738
:1007C00070472DE9F0470D4699469246044600F1E0
:1007D00024080168880604D5E06921F01001216031
:1007E00000E00120A84201DD471B00E00027A169CD
:1007F0007A1902EB0900081AA0612078C00602D419
:100800002046FFF7E1FD002608E0D4E901211AF8AF
:1008100006009047206A401C761C20624E45F4DB9F
:100820002078C0060AD52046FFF7CEFD06E0D4E9C1
:10083000012130209047206A401C2062381EA7F119
:100840000107F4DC07E0D4E9012118F8050090471E
:10085000206A401C2062281EA5F10105F3DC204619
:10086000FFF7C8FD2078000602D50220BDE8F0871A
:100870000120FBE701694A1C02610878704700B556
:100880008FB0CDE901310021059105497944CDE9C9
:10089000031011466846FFF723FE0FB000BD0000AD
:1008A000E5FFFFFF0A6802F8010B0A60704710B508
:1008B000436913B1AFF3008001E0FFF7ACFD012005
:1008C00010BD127800F124010A7000224A70012242
:1008D000EDE711684FF0FF32E9E710B5203AC0F0BC
:1008E0000B80B1E81850A0E81850B1E81850A0E803
:1008F0001850203ABFF4F5AF5FEA027C24BFB1E89C
:100900001850A0E8185044BF18C918C0BDE81040DE
:100910005FEA827C24BF51F8043B40F8043B08BFE7
:100920007047D20728BF31F8023B48BF11F8012BAE
:1009300028BF20F8023B48BF00F8012B70477546DE
:1009400000F02CF8AE4605006946534620F007003B
:10095000854618B020B5FFF799FCBDE820404FF060
:1009600000064FF000074FF000084FF0000BAC46B8
:10097000ACE8C009ACE8C009ACE8C009ACE8C00903
:1009800021F007018D46704710B50446AFF3008093
:100990002046BDE81040FFF764BC000000487047E7
:1009A000A000002001491820ABBEFEE7260002008F
:1009B00070470000FEE70000F0B583B040F26457D6
:1009C000C2F20007044638680E264FF0FF350DF1DD
:1009D0000502D02101238DF80560009500F0C2FDCD
:1009E000386801AAD0210123009500F02DFC9DF864
:1009F000040004F0010100F0FE00014438688DF8A5
:100A000007100DF10602D02102238DF80660009533
:100A100000F0A8FD38680DF10902D02101238DF8FE
:100A20000960009500F09EFD386802AAD0210123DC
:100A3000009500F009FC9DF808000DF10A0240F055
:100A4000040138688DF80B10D02102238DF80A605C
:100A5000009500F087FD03B0F0BD0000F0B583B055
:100A600040F26457C2F20007044638680E264FF081
:100A7000FF350DF10502D02101238DF805600095A9
:100A800000F070FD386801AAD0210123009500F024
:100A9000DBFB9DF8040004F0010100F0FD0040EADA
:100AA000410138688DF807100DF10602D0210223AC
:100AB0008DF80660009500F055FD38680DF10902CB
:100AC000D02101238DF80960009500F04BFD3868B6
:100AD00002AAD0210123009500F0B6FB9DF8080082
:100AE0000DF10A0240F0040138688DF80B10D02196
:100AF00002238DF80A60009500F034FD03B0F0BDCC
:100B0000F0B583B040F26456C2F200060C460221F2
:100B100030688DF807104FF0FF350DF10702D02136
:100B200001230095012700F01DFD30680DF106023C
:100B3000D0210123009500F087FB9DF806000DF100
:100B400009020109A1EB810100EB4100A0703068AE
:100B5000D02101238DF80970009500F003FD306865
:100B600002AAD0210123009500F06EFB9DF8080039
:100B70000DF10B020109A1EB810100EB4100607056
:100B8000002130688DF80B10D0210123009500F072
:100B9000E9FC30680DF10A02D0210123009500F034
:100BA00053FB9DF80A000109A1EB810100EB410113
:100BB0000020217003B0F0BD70B584B040F26454E1
:100BC000C2F2000420600020FFF7F6FE0020FFF7CD
:100BD00045FF20680F264FF0FF350DF10502D021AB
:100BE00001238DF80560009500F0BCFC206801AA87
:100BF000D0210123009500F027FB9DF804000DF1A2
:100C0000060200F0FE0120688DF80710D0210223B3
:100C10008DF80660009500F0A5FC20680DF1090232
:100C2000D02101238DF80960009500F09BFC20681D
:100C300002AAD0210123009500F006FB9DF80800D0
:100C40000DF10A0200F0FD0120688DF80B10D02193
:100C500002238DF80A60009500F084FC20680E26BF
:100C60000DF10D02D02101238DF80D60009500F0EB
:100C700079FC206803AAD0210123009500F0E4FA52
:100C80009DF80C000DF10E0240F0040120688DF873
:100C90000F10D02102238DF80E60009500F062FC49
:100CA00004B070BD70470000012000F023B80000C0
:100CB000022000F01FB80000102000F01BB8000058
:100CC00072B600BFFEE70000B0B5044600F0FAF8C7
:100CD000054640F28400C2F200000078611C18BF93
:100CE000044400BF00F0EEF8401BA042FAD3B0BDB0
:100CF0007047000043F61441C4F201010A68024241
:100D000014BF08607047FFF7F3BF00002DE9F04FF4
:100D100083B000F1200200F13E4741F2000500924D
:100D200007F1FF77C4F2020507224FEAB726A8426F
:100D300008BF042200254FF000084FF00009042EE0
:100D400038BF4FEAB72201920AE000BF09F101095A
:100D500008F10208B9F1100F05F1040500F0A280B6
:100D60000F68012202FA09FE17EA0E0AEED0D1F846
:100D700004C003220CF003077E1E02FA08F4012EC1
:100D80006FEA040B12D88468CE6804EA0B0406FAF2
:100D900008F634438460446824EA0E06CCF3001459
:100DA00004FA09F42643466004E000BF032F01D192
:100DB00003271EE0C6688C6806EA0B0604FA08F4EE
:100DC0002643022FC66014D16FF00302009E02EA90
:100DD000590756F807C005F01C040F220B69A24002
:100DE0002CEA0202A3401A43F251D1F804C00CF0DD
:100DF0000307026807FA08F302EA0B021A431CF41D
:100E0000403F0260A2D0002243F644030292C4F2A3
:100E100002031A6843F6004442F480421A601A68DA
:100E2000C4F2010402F480420292029A29F0030201
:100E30004FF6084C2244CFF6FF7C52F80C3005F0F8
:100E40000C070F26BE40B343019E06FA07F73B434B
:100E500042F80C30A2684B6842EA0A0743F60C4C91
:100E6000DE0258BF22EA0A07A760C4F2010CDCF8D0
:100E700000209E0242EA0A0758BF22EA0A07CCF87D
:100E8000007062689E0342EA0A0758BF22EA0A0716
:100E900067602268DB0342EA0A0758BF22EA0A07B2
:100EA000276053E703B0BDE8F08F000000690840F9
:100EB00018BF012070470000002A08BF09048161A3
:100EC0007047000040F24C60C2F2000000687047BA
:100ED000002804BF01207047F0B581B0044690F8A7
:100EE0003D0028B9002084F83C00204600F028FC92
:100EF000242084F83D002068016821F00101016090
:100F0000016841F400410160016821F40041016081
:100F100000F068FE636848F2A16CC0F2010C40F674
:100F20000011C0F23D0163453CBF48F28041C0F270
:100F30001E01884202D2012001B0F0BD4DF683614E
:100F4000C4F21B31A0FB01122168970CD1F804E018
:100F50004FF496762EF03F0545EA92454D60774373
:100F600048F638160D6AC0F24106A7FB067625F052
:100F70003F07634538BF960C721C3A430A62CA6940
:100F800048F2A0664CF6FF77C0F20106B34222EAAF
:100F900007020BD801385B00B0FBF3F001306FF3B0
:100FA0001F30042898BF04201BE000BFA768013849
:100FB00057B119277B43B0FBF3F001306FF31F30BB
:100FC00070B100F5804007E003EB4303B0FBF3F0A2
:100FD00001306FF31F3018B100F5004001E000BF91
:100FE00001201043C8610868D4E9072320F0C0003D
:100FF000104318430860886848F2FF3204F10C0778
:1010000090438CCF18431043A6698860C86820F0CD
:10101000FF0038433043C860086840F001000860B2
:1010200000202021206484F83D10206384F83E00D5
:1010300001B0F0BD2DE9F04F83B01E4692468846C0
:101040000446FFF73FFF94F83D10202924D1216882
:10105000054600BF886980071AD5FFF733FF401B9C
:1010600021681A28F6D388698007F3D5002020214B
:10107000206384F83D1084F83E00216C41F020018B
:10108000216484F83C00022003B0BDE8F08F00BF6B
:1010900094F83C00012803D1022003B0BDE8F08F92
:1010A0004FF0010984F83C900868C00703D1086834
:1010B00040F0010008600868002720F40060086024
:1010C000242084F83D000020CFF6FF702764E06202
:1010D00008F0FE08BAF1010F88BFD1464FF0A00A10
:1010E0004FF0200B04E000BF01374F4500F0A28015
:1010F0000868002240F48070086020464FF001111B
:101100003346009501F054FB2168002856D1C1F800
:101110001080FFF7D7FE21684B694A6994F83D506B
:10112000A02D054605D013F0020008BF12F4806020
:101130001AD084F83DB048690A68800742F400720A
:101140000A6045D46FF48060486100BF88698007F9
:10115000CAD5FFF7B7FE401B21681A28F6D3886965
:101160008007F3D54AE000BFB6B100BFFFF7AAFE83
:10117000401BB04288BF84F83DA021684A69486995
:1011800094F83D30A02BD4D012F0020208BF10F426
:101190008060EBD0CDE700BFFFF794FE84F83DA060
:1011A00021684A69486994F83D30A02BC1D012F0FB
:1011B0000202BED110F48060EED0BAE70868C00524
:1011C00044BF4FF400702064032003B0BDE8F08FEB
:1011D000002002904869029088690290029888690C
:1011E00001E000BF806980071AD5FFF76BFE411B45
:1011F00020681A29F6D381698907F3D500202021B8
:10120000206384F83D1084F83E00216C41F02001F9
:10121000216484F83C00012003B0BDE8F08F00BFDA
:10122000202084F83D00002084F83C0003B0BDE895
:10123000F08F00BF202084F83D00002084F83C009F
:10124000012003B0BDE8F08F2DE9F04383B01F46C5
:10125000164689460446FFF735FE94F83D102029CE
:1012600024D10546206800BF816989071AD5FFF798
:1012700029FE411B20681A29F6D381698907F3D515
:1012800000202021206384F83D1084F83E00216C6A
:1012900041F02001216484F83C00022003B0BDE845
:1012A000F08300BF94F83C10012903D1022003B061
:1012B000BDE8F083012184F83C100168C90703D11F
:1012C000016841F001010160016840F2040821F465
:1012D00000610160222184F83D10102184F83E1045
:1012E0000021216466626785618DC0F20108218555
:1012F000A8F500310439E162E16A02680A9F42F40C
:10130000806211F5803F026018BF012942D1016857
:1013100041F48071016020464FF0011100223B46EC
:10132000009501F045FA58B120680068C00544BF37
:101330004FF400702064012003B0BDE8F08300BFCB
:101340002069B0F5804F2BD149F00100C0B221686F
:101350003A460861A8F1020120462B4601F00EFB37
:101360000028E8D1208D00285AD002284ED001282C
:101370006ED121680A6822F480620A60002202921B
:101380004A6902928A690292029A0A6842F40072D9
:101390000A6078E00829BAD0216B1129B7D0BAE7E2
:1013A000062000EAD916206806F1F001016108F173
:1013B000040120463A462B4601F0E0FA0028BAD153
:1013C00020685FFA89F10161A8F1020120463A46DE
:1013D0002B4601F0D3FA0028ADD1002002902068FE
:1013E000002241693B46029181690291029901689C
:1013F00041F48071016020464FF00111009501F029
:10140000D7F9002890D146F0F100A0E721680A68DA
:1014100022F480620A600A6842F400621CE000BFA5
:10142000002002902068416902918169029102992D
:10143000016841F400710160202084F83D00002023
:1014400084F83E0084F83C0003B0BDE8F08300BFA0
:1014500021680A6842F480620A60002202924A69A6
:1014600002928969029102990DE000BF106908702B
:10147000606A218D01306062481E2085618D0139CE
:1014800061850104D8D080B203280FD802284AD041
:1014900001282DD1204639462A4601F0DBFA0028E2
:1014A0007FF449AF2068616A0069E0E72046394669
:1014B0002A4601F0CFFA00287FF43DAF2068616A28
:1014C00000690870606A2268411C208D61620138E1
:1014D0002085638D013B638553695B07D1D580B25D
:1014E0000328C3D1106820F480601060BEE700BFFD
:1014F0002046414600223B46009501F059F900285C
:101500007FF419AF2068616A026822F48062026089
:1015100000690870606A218D01306062481E208574
:10152000608D013860852046414600223B4600958B
:1015300001F03EF900287FF4FEAE2068616A02687F
:1015400042F40072026000690870606A2268411CFF
:101550006162218D01392185618D013961851169B2
:10156000417085E72DE9F04383B01E461746894652
:101570000446FFF7A7FC94F83D10202924D1054626
:10158000206800BF816989071AD5FFF79BFC411BC2
:1015900020681A29F6D381698907F3D50020202114
:1015A000206384F83D1084F83E00216C41F0200156
:1015B000216484F83C00022003B0BDE8F08300BF42
:1015C00094F83C10012903D1022003B0BDE8F08358
:1015D000012184F83C100168C90703D1016841F07A
:1015E00001010160016840F2020821F4006101601C
:1015F000212184F83D10102184F83E10002121643F
:1016000067626685618DC0F201082185A8F102112B
:10161000E162E16A0A9E11F5803F18BF01291DD1E0
:10162000016841F48071016020464FF001110022F1
:101630003346009501F0BCF850B120680068C00541
:1016400044BF4FF400702064012003B0BDE8F08374
:101650002069B0F5804F07D1FE2015E00829DFD0C2
:10166000216B1229DCD0DFE7062000EAD9102168BF
:10167000F030086108F10601204632462B4601F0A1
:101680007DF90028E0D1FF20216800EA0900086107
:101690002046414632462B4601F070F90028D3D14E
:1016A00000200290206841690291806902900298AE
:1016B00006E000BF204631462A4601F01BF818BB61
:1016C000208D68B3204631462A4601F00BFAD8B97E
:1016D000606A2168024612F8013B0B616262628D0A
:1016E000013A6285228D531E23854F697F07E1D51C
:1016F0001B04DFD0437802300B616062608D0138DB
:101700006085901E2085D5E7206C04289CD1206838
:10171000016841F400710160012003B0BDE8F0836D
:101720002068016841F400710160202084F83D00C8
:10173000002084F83E0084F83C0003B0BDE8F0834C
:10174000B0B586B045F200410068C4F20001002443
:1017500088420594CDE903440294019402D006B076
:10176000B0BD00BF43F630050094C4F202052868FE
:1017700040F002002860286800F002000090009805
:10178000C02001901220CDE902040320049004201F
:10179000059001F5D83001A9FFF7B8FA009428693F
:1017A00040F400102861286900F4001000900098AF
:1017B00006B0B0BD40F2840040F24C61C2F20000BD
:1017C000C2F2000100780A68104408607047000007
:1017D00080B543F60040C4F20200016841F4007194
:1017E0000160016841F480610160016841F4807129
:1017F0000160032000F086F80F2000F005F800F0EB
:1018000027F8002080BD000070B540F28406C2F2C7
:10181000000640F29C013278C2F200014FF47A7364
:101820000968B3FBF2F20446B1FBF2F1084600F09E
:10183000B3FC0F2C4FF0010508D838B94FF0FF303A
:1018400021460022002500F031F87460284670BD62
:1018500082B0002043F640010190C4F202014A68C0
:1018600042F480424A604A6802F480420192019A3E
:101870000090086840F080500860086800F08050D0
:101880000090009802B07047002848BF704700F0F1
:101890001F01012202FA01F11C2202EAD0004EF2DD
:1018A0000012CEF2000281507047000010B54EF6D3
:1018B0000C5CCEF2000CDCF80030C3F3022E8EF08C
:1018C0000704042C28BF0424BEF103034FF0FF3E9D
:1018D0000EFA04F438BF0023A14399400EFA03F333
:1018E0009A43114300F00F0200F160430901043AEA
:1018F00003F564436244002848BF02F10C031970E9
:1019000010BD00004EF60C51CEF200010A684FF6F1
:10191000FF031A4060F30A2242F0806040F0FD703D
:1019200008607047F0B581B00446006810F0050FFC
:101930002DD06827C4F2472743F670060020C4F272
:1019400002063860FFF7BEFA054600BF56F8700C75
:10195000000105D5FFF7B6FA401B0228F6D93DE095
:10196000D4E90101090741EA801070610120386063
:10197000FFF7A8FA054600BF56F8700C000105D421
:10198000FFF7A0FA401B0228F6D927E0206881075C
:1019900058D543F670060020C4F20206009056F8AF
:1019A000300C47F2000740F0805046F8300C56F8F3
:1019B000300CC4F2000700F08050009000983868A6
:1019C00040F480703860FFF77DFA05463868C0053E
:1019D00008D4FFF777FA401B0228F7D9032001B09B
:1019E000F0BD00BF306810F4407013D0E16801F41E
:1019F000407188420ED0306840F64061C4F2472101
:101A0000012220F440700A6000220A6030603068D1
:101A1000C00723D12068E16856F8682C4FF6FF47CD
:101A200001F4407322F4F812C0F6FF770F40B3F5CB
:101A3000407F08BF3A4346F8682C32686FF31F3185
:101A400011433160000706D5207C40F64061C4F2A6
:101A50004721C1F8A003002001B0F0BDFFF732FA22
:101A6000054641F2883700BF30688007D2D4FFF7BF
:101A700029FA401BB8424FF00300F5D9ECE700000B
:101A8000002804BF012070472DE9F04143F6080803
:101A9000C4F202080446D8F8F8030D4600F0070027
:101AA000814207D988F8F853D8F8F80300F0070006
:101AB000A84277D12068810717D5410705D5D8F806
:101AC000001041F4E051C8F80010010705D5D8F81E
:101AD000001041F46041C8F80010D8F80010A26866
:101AE00021F0F0011143C8F80010C00740D1D8F828
:101AF000F80300F00700854207D288F8F853D8F8B9
:101B0000F80300F00700A8424CD12068410707D530
:101B1000D8F80010E26821F4E0511143C8F8001031
:101B2000000708D5D8F80000216920F4604040EA99
:101B3000C100C8F8000000F07DF8D8F8001043F6A6
:101B40007542C1F30311C0F60002515C40F29C02E1
:101B500020FA01F140F28800C2F200000068C2F2EF
:101B600000021160FFF750FE0020BDE8F08100BFC9
:101B70006068811E022907D258F8081C89015CBFE1
:101B80000120BDE8F08111E0012807D158F8081CB8
:101B900089035CBF0120BDE8F08107E058F8081C0C
:101BA000890703D40120BDE8F08100BFD8F80010F8
:101BB00021F003010843C8F80000FFF783F9064647
:101BC00041F28837D8F80000616800F00C00B0EBF3
:101BD000810F8CD0FFF776F9801BB842F2D9032031
:101BE000BDE8F08140F29C0043F60801C2F200001B
:101BF000C4F202010068096843F68542C1F38221FC
:101C0000C0F60002515CC8407047000040F29C00E2
:101C100043F60801C2F20000C4F20201006809683C
:101C200043F68542C1F34231C0F60002515CC84020
:101C30007047000010B543F60404C4F20204616862
:101C4000C1F3810142F20040C0F2F400DFE801F08C
:101C500002040A0210BD00BF47F64000C0F27D102A
:101C600010BD00BF206821682368490247F6400183
:101C7000C0F27D1100F03F02C3F388105CBF42F256
:101C80000041C0F2F401A1FB00010023FEF710FBAC
:101C900021680222C1F3014102EB4101B0FBF1F0E6
:101CA00010BD0000002804BF012070472DE9F0415D
:101CB00082B00446007843F60006C007C4F202066C
:101CC0000CD0B06800F00C00042840F0818030682F
:101CD000800303D56068002800F0688120788007C1
:101CE0001BD5B06810F00C0F09D0B06800F00C00E4
:101CF000082840F087807068400200F183803068D7
:101D0000800703D5E068012840F0508130682169E0
:101D100020F0F80040EAC10030602078000713D4BA
:101D2000207840072AD4A569002D00F03A81B068D8
:101D300000F00C00082840F0A580012D40F00E8135
:101D4000012002B0BDE8F0816069002800F08280C7
:101D50000020C4F247200121C0F8801EFFF7B2F82E
:101D6000054600BF706F8007DAD4FFF7ABF8401B61
:101D70000228F7D9032002B0BDE8F081306C5FEA99
:101D8000C0080AD400200190306C40F080503064CC
:101D9000306C00F080500190019847F20007C4F2C7
:101DA00000073868C00547D4386840F48070386050
:101DB000FFF788F8054600BF3868C0053CD4FFF738
:101DC00081F8401B0228F7D9032002B0BDE8F0815A
:101DD000B06800F00C00082803D1706840023FF59D
:101DE00076AF61683068B1F5803F07D0B1F5A02FBC
:101DF00040F09A8040F480203060306840F48030B9
:101E000030609AE0E068002840F20000C4F2472009
:101E10005CD001210160FFF755F805463068800766
:101E20003FF574AFFFF74EF8401B0228F6D90320A8
:101E300002B0BDE8F08100BFA168306F012905D074
:101E4000052955D140F004003067306F40F00100A3
:101E5000306756E00020C4F247200021C0F8801E01
:101E6000FFF730F8054600BF706F80077FF558AF69
:101E7000FFF728F8401B0228F6D9032002B0BDE87E
:101E8000F08100BF0027C4F2472700203866FFF723
:101E900019F8022D05460DD13068800140F18A8085
:101EA000FFF710F8401B02284FF00300F4D902B0EE
:101EB000BDE8F0813068800173D5FFF703F8401B5F
:101EC00002284FF00300F5D9F1E700BF00210160BF
:101ED000FEF7F8FF054600BF306880077FF51DAFAD
:101EE000FEF7F0FF401B02284FF00300F4D9DEE7B5
:101EF00020F001003067306F002920F004003067C7
:101F00007AD0FEF7DFFF054641F28837306F800751
:101F100000F18480FEF7D6FF401BB842F6D90320BB
:101F200002B0BDE8F08100BF20F48030306030683E
:101F3000002920F4802030607AD0FEF7C3FF0546E8
:101F4000306880033FF5CAAEFEF7BCFF401B642833
:101F5000F6D9032002B0BDE8F08100BF7068E169E6
:101F600000F480028A4221D1216A00F03F028A42B5
:101F70001CD147F6C071626A0140B1EB821F15D1D6
:101F8000A16A4FF6FF73C903994300F44032A1F5EB
:101F900080318A420AD1E16A00F07060B0EB016FD3
:101FA00004D1002002B0BDE8F08100BF012002B0E2
:101FB000BDE8F08104F11C052FCD084340EA8210F2
:101FC000D9034FF6FF729143A1F5803140EA0560D5
:101FD0000843706001203866FEF774FF044600BFB6
:101FE00030688001DDD4FEF76DFF001B02284FF042
:101FF0000300F5D95BE700BFFEF764FF054641F239
:10200000883700BF306F800708D5FEF75BFF401BA5
:10201000B8424FF00300F5D949E700BFB8F1000F0F
:102020003FF581AE306C20F0805030647BE600BF1D
:10203000FEF748FF054600BF306880037FF54EAECF
:10204000FEF740FF401B64284FF00300F4D92EE751
:10205000002804BF01207047B0B50446407F20B976
:1020600000202077204600F071F802206077216878
:10207000C868C0065ED4CA20486253204862C86857
:10208000400615D4C86840F08000C860FEF71AFF0B
:102090002168CA6852060BD4054600BFFEF712FF3E
:1020A000401BB0F57A7F49D82168C8684006F5D54D
:1020B00088684FF6BF72CFF68F7210408860D4E9FF
:1020C000010CD4E90335626928438D681043284325
:1020D00088600B61086940EA0C400861C86820F01C
:1020E0008000C860886880061AD443F65F70C0F22A
:1020F0000100C860FEF7E6FE054600BF2168C8681B
:1021000080060DD4FEF7DEFE401BB0F57A7FF5D9D0
:10211000042060772068FF2141620120B0BD00BF2C
:10212000086C20F480200864A0690A6C10430864DD
:10213000FF204862012060770020B0BD0420607756
:102140002068C168FF2141620120B0BD80B586B022
:10215000006842F60001C4F2000188424FF000001E
:10216000CDE90400CDE9020002D006B080BD00BF79
:10217000022001904FF40070049001A8FFF7D2FBF9
:10218000002818BFFEF79CFD40F63C60C4F24720D3
:102190000121016006B080BD411E0020B0EB116F2F
:1021A0001CBF012070474EF21002CEF200025160B7
:1021B0004EF62351CEF20001F0230B700721906000
:1021C0001160704790F83C20012A4FF0020241D084
:1021D00010B580F83D200268D2F804E0D2F808C0BB
:1021E0000C682EF07003234340F6FF34C4F2000461
:1021F000A242536010DCB2F1804F1ED040F2004387
:10220000C4F200039A4218D040F60003C4F200035F
:102210009A4212D016E000BF40F60043C4F2000319
:102220009A420AD044F20003C4F201039A4204D055
:102230000023C4F201039A4204D149682CF08003C0
:10224000194391600121002280F83D1080F83C2064
:10225000BDE8104010467047002804BF01207047B9
:1022600010B5044690F83D0028B9002084F83C00E1
:10227000204600F01FF8022084F83D002068211D50
:1022800001F0A4F8012084F8460084F83E0084F8A8
:102290003F0084F8400084F8410084F8420084F84C
:1022A000430084F8440084F8450084F83D00002091
:1022B00010BD00000068B0F1804F18BF704781B0BA
:1022C0000020009043F64000C4F20200016841F093
:1022D00001010160006800F001000090009801B069
:1022E0007047000090F83C20012A4FF002026CD0A9
:1022F00080B580F83D20D0F800C04FF67772DCF84A
:10230000083023EA0202CCF808200B684F2B29DCA6
:102310001F2B45DD202B46D0302B44D0402B40F0E6
:10232000AF80D1F804E0C968DCF82030DCF8202068
:1023300022F00102CCF82020DCF8182022F0F00274
:1023400042EA011123F00A0242EA0E02CCF8181008
:10235000CCF82020DCF8081041F0470121F03001D2
:1023600028E000BF6F2B33DDB3F5005F74D0B3F509
:10237000805F21D0702B40F08380D1E901E3C968F0
:10238000DCF8082043EA0E0322F47F4243EA0121ED
:102390001143CCF80810DCF8081041F0770109E08F
:1023A0000BB1102B6CD1DCF8081021F0700119432F
:1023B00041F00701CCF808100022012180F83D10FF
:1023C000002180F83C10BDE880401046704700BFF7
:1023D000502B21D0602B53D1D1F804E0C968DCF830
:1023E0002030DCF8202022F01002CCF82020DCF88D
:1023F000182022F4704242EA013123F0A00242EA9E
:102400000E12CCF81810CCF82020DCF8081041F09F
:10241000670121F01001CDE7D1F804E0C968DCF8CC
:102420002030DCF8202022F00102CCF82020DCF85B
:10243000182022F0F00242EA011123F00A0242EAD7
:102440000E02CCF81810CCF82020DCF8081041F06F
:10245000570121F02001ADE7D1E901E3C968DCF8BB
:10246000082043EA0E0322F47F4243EA012111438C
:10247000CCF80810DCF8081041F480419AE700BF5E
:1024800001229AE7002804BF0120704710B50446D6
:1024900090F8410028B9002084F84000204600F060
:1024A00021F8242084F841002068C16821F40051FB
:1024B000C160204601F00AF82068016921F49041CA
:1024C0000161416921F02A014161C16841F4005173
:1024D000C16000202021606484F8411084F842101B
:1024E000606310BD80B586B041F200010068C4F29F
:1024F0000101002288420592CDE903220292019255
:1025000002D006B080BD00BF43F630000092C4F296
:102510000200436943F010034361436903F0100371
:102520000093009B0092036843F00103036000687E
:1025300000F00100009000984FF4C060019002206C
:10254000CDE90202032004900720059001F57040B8
:1025500001A9FEF7DBFB06B080BD00002DE9F043CA
:1025600081B0044690F84100202809D100294FF09D
:10257000010018BF002A07D101B0BDE8F08300BFF9
:10258000022001B0BDE8F0830020606421201D46D8
:102590000E4684F841001746FEF794FCA784E784B2
:1025A000A1688146B1F5805F02D1206900285DD025
:1025B00037460020E28C2168002A5DD06A1C24D0B6
:1025C000002D4AD0804600BF0868000608D4FEF7F8
:1025D00079FCA0EB0900A8427AD82168C868F3E723
:1025E00017B117F8010B04E038F8020B00276FF35E
:1025F0005F204860E08C0138E084E08C0028E3D163
:102600003AE000BF0A68120609D40A68120606D426
:102610000A6812065CBF0A685FEA0262F2D51FB15F
:1026200017F8012B05E000BF30F8022B00276FF3ED
:102630005F224A60E28C013AE284E28C002AE4D113
:102640001AE000BF30F8022B00276FF35F224A60C8
:10265000E28C013AE284E28C72B10A68120635D546
:10266000002FEFD017F8012BF1E700BF002730460D
:10267000E28C2168002AA1D1086840061ED42DB33F
:10268000681C14D1086840062AD40868400627D47C
:102690000868400624D4086840064FF00000F1D5D1
:1026A0000DE000BF2068C1680068400618D4FEF73E
:1026B00009FCA0EB0900A842F4D909E00020202180
:1026C00084F8411001B0BDE8F08300BFFEF7FAFBCB
:1026D0000320202184F8411001B0BDE8F08300BF41
:1026E0000020202184F8411001B0BDE8F0830000F3
:1026F000FEE7000070B50368044653F8140F400766
:1027000011D40E46481C29D086BB00BF186840056E
:1027100027D4FEF7D7FB236853F8140F400737D5AB
:1027200018684007F2D5002070BD00BF1868400748
:10273000F9D41868400514D418684007F3D4186811
:1027400040050ED418684007EDD41868400508D439
:10275000186840074FF0000048BF70BD186840057A
:10276000E4D56FF480601860042012E0154603E0A1
:1027700053F8140F4007D6D418684005F1D4FEF77B
:10278000A1FB401B2368B042F2D958694007EFD43F
:10279000202000212022216384F83D2084F83E106F
:1027A000226C10432064012084F83C1070BD0000AE
:1027B0002DE9F041054600681E46144601F47F02EB
:1027C00001338FB242D0DDF81880B2F5803F40F07F
:1027D000878040693840C01BB0FA80F040098442CD
:1027E00040F0C8804EB924E040693840C01BB0FAC0
:1027F00080F04009844240F0BD80FEF763FBA0EB0F
:1028000008012868B142EFD941693940C91BB1FAC2
:1028100081F149098C42E7D19BE000BF4069384013
:10282000C01BB0FA80F0400984424FF0000040F035
:10283000A280FEF747FB286841693940C91BB1FAFD
:1028400081F149098C42E9D183E000BFB2F5803FB4
:1028500024D100BF41693940C91BB1FA81F149094E
:102860008C4240F0878041693940C91BB1FA81F13F
:1028700049098C4240F07E8041693940C91BB1FA58
:1028800081F149098C4275D141693940C91BB1FABE
:1028900081F149098C42DDD06CE000BF816939408B
:1028A000C91BB1FA81F149098C4263D18169394070
:1028B000C91BB1FA81F149098C425BD18169394068
:1028C000C91BB1FA81F149098C4253D18169394060
:1028D000C91BB1FA81F149098C42DFD04AE000BF3F
:1028E00080693840C01BB0FA80F04009844241D171
:1028F00046B923E080693840C01BB0FA80F0400937
:10290000844237D1FEF7DEFAA0EB08012868B14215
:10291000F0D981693940C91BB1FA81F149098C426A
:10292000E8D116E080693840C01BB0FA80F0400959
:1029300084424FF0000018BFBDE8F081FEF7C2FAF4
:10294000286881693940C91BB1FA81F149098C4273
:10295000E8D100202021286385F83D1085F83E004D
:10296000296C41F02001296485F83C000120BDE874
:10297000F08100BF0020BDE8F0810000F0B581B01B
:10298000044600681D4643698FB203EA0701B94255
:1029900002D1002001B0F0BD4169164601323CD0A1
:1029A000490512D47EB300BFFEF78CFA411B2068A4
:1029B000B14203D941693940B9422BD1416939400B
:1029C000B942E6D041694905EED5016841F400718C
:1029D00001606FF4806141610420002120222163A5
:1029E00084F83D2084F83E10226C1043206484F863
:1029F0003C10012001B0F0BD41693940B942C8D056
:102A000041694905E1D4FEF75DFA20684169394022
:102A1000B942F1D02020E0E741694905D5D44169A8
:102A20003940B942B5D041694905CED441693940F0
:102A3000B942AED041694905C7D441693940B9426C
:102A4000A7D041694905C0D441693940B942E3D1B1
:102A50009FE7000070B504460068154650F8143F23
:102A60005A063DD40E4629B926E000BF50F8141F7F
:102A7000490635D40168C90621D4FEF723FA411B63
:102A80002068B142F2D941694906EFD400202021E3
:102A9000206384F83D1084F83E00206C40F0200054
:102AA00018E000BFFEF70EFA206850F8141F490620
:102AB000ECD50168490613D40168C906F2D56FF058
:102AC0001001016000202021206384F83D1084F86B
:102AD0003E00206C2064002084F83C00012070BD82
:102AE000002070BD70B50368044653F8140F00064B
:102AF00011D40E46481C29D086BB00BF186840057B
:102B000027D4FEF7DFF9236853F8140F000637D5F2
:102B100018680006F2D5002070BD00BF18680006D6
:102B2000F9D41868400514D418680006F3D418685E
:102B300040050ED418680006EDD41868400508D486
:102B4000186800064FF0000048BF70BD18684005C7
:102B5000E4D56FF480601860042012E0154603E0AD
:102B600053F8140F0006D6D418684005F1D4FEF7C8
:102B7000A9F9401B2368B042F2D958690006EFD486
:102B8000202000212022216384F83D2084F83E107B
:102B9000226C10432064012084F83C1070BD0000BA
:102BA0002DE9F04F85B040F2601845F2561A40F218
:102BB0000007C2F2000840F2034000264FF001096E
:102BC000C0F6000AC2F20007EB460024A8F8000095
:102BD0003AF8145057F824005946CDE90196039667
:102BE0000095FEF793F857F8240029460122FEF7D6
:102BF00063F998F8000001348442E9D398F80100A1
:102C0000C8B145F25C1A00254FF00109C0F6000A70
:102C10006C4600263AF8161007EB8600C068009153
:102C20002146CDE901590395FEF770F898F80100A7
:102C300001368642EED305B0BDE8F08F2DE9F04FA6
:102C400081B040F2601BC2F2000B9BF8000000282C
:102C500068D040F2000745F2561A45F25C194FF071
:102C600000080120C2F20007C0F6000AC0F6000901
:102C700006E000BF9BF8000008F10108804551D232
:102C800060B1002457F824003AF814100122FEF72E
:102C900013F99BF8000001348442F3D357F828005D
:102CA0003AF818100022FEF707F90520FEF70CF895
:102CB0009BF801000028DDD0002504E09BF801000E
:102CC00001358542D6D207EB850639F81540F06804
:102CD0002146FEF7EBF80028F0D11420FDF7F4FFB1
:102CE000F0682146FEF7E2F80028E7D1012000FA5B
:102CF00008F14FF4807000FA05F2F06842EA01052D
:102D00002146FEF7D3F840B90520FDF7DDFFF06856
:102D10002146FEF7CBF80028F6D0A8B201B0BDE8F6
:102D2000F08F00BF0025A8B201B0BDE8F08F000011
:102D300070B5B8B10546FEF7C5F80646FEF7C2F80D
:102D4000801BA8421CD200BFFFF778FF0446C0B921
:102D50001420FDF7B9FFFEF7B5F8801BA842F3D3A6
:102D60000FE000BFFFF76AFF38B900BF1420FDF77E
:102D7000ABFFFFF763FF0028F8D0044601E000BF77
:102D8000002440F26011C2F2000120464C8070BD68
:102D900080B5FFF7CDFFB0F5806F0FDCB0F5007F99
:102DA0001EDC40F20111884238D0B0F5817F3DD061
:102DB000B0F5827F04BF332080BD2DE0B0F5006FF9
:102DC0001CDC40F2014188422AD040F20241884294
:102DD0002ED040F20441884204BF392080BD1BE060
:102DE00040F2012188421DD040F20221884221D0C8
:102DF000B0F5017F04BF362080BD0DE040F6010133
:102E0000884211D040F60201884215D040F60401F4
:102E1000884204BF232080BD002080BD312080BDBA
:102E2000372080BD342080BD2A2080BD322080BD67
:102E3000382080BD352080BD302080BDFEE70000F9
:102E4000FEE700007047000080B50246002840F20F
:102E50006410C2F200004FF4806118BFFF22FDF73A
:102E60003FFC80BD40F20012C2F20002508091800F
:102E7000704700002DE9F04182B040F26850C2F284
:102E800000007821012244F62063FEF7D3F84FF0CA
:102E9000000418B1204602B0BDE8F08140F2685548
:102EA0004FF42E40C2F20005ADF806000A260DF1DF
:102EB00006022846782102230096FEF753FB4FF4C2
:102EC00000580DF10602284678210223ADF806804D
:102ED0000096FEF747FB4FF480570DF10602284697
:102EE00078210223ADF806700096FEF73BFB4FF405
:102EF0003040ADF806000DF1060228467821022385
:102F00000096FEF72FFB4FF44840ADF806000DF198
:102F100006022846782102230096FEF723FB0DF1D6
:102F20000602284678210223ADF806400096FEF7F7
:102F300019FB0DF10602284678210223ADF8067030
:102F40000096FEF70FFB4FF48040ADF806000DF140
:102F500006022846782102230096FEF703FB4FF471
:102F60000140ADF806000DF1060228467821022343
:102F70000096FEF7F7FA4FF47F40ADF806000DF12A
:102F800006022846782102230096FEF7EBFA4FF45A
:102F90002140ADF806000DF10602284678210223F3
:102FA0000096FEF7DFFA4FF42640ADF806000DF16B
:102FB00006022846782102230096FEF7D3FA4FF442
:102FC0002840ADF806000DF10602284678210223BC
:102FD0000096FEF7C7FA4FF47C50ADF806000DF1ED
:102FE00006022846782102230096FEF7BBFA4FF42A
:102FF0002440ADF806000DF1060228467821022390
:103000000096FEF7AFFA4FF45340ADF806000DF10D
:1030100006022846782102230096FEF7A3FA0DF156
:103020000602284678210223ADF806400096FEF7F6
:1030300099FA4FF45540ADF806000DF10602284606
:10304000782102230096FEF78DFA4FF47040ADF818
:1030500006000DF106022846782102230096FEF7AD
:1030600081FA4FF45940ADF806000DF106022846EA
:10307000782102230096FEF775FA4FF40850ADF858
:1030800006000DF106022846782102230096FEF77D
:1030900069FA4FF45A40ADF806000DF106022846D1
:1030A000782102230096FEF75DFA4FF49050ADF8B8
:1030B00006000DF106022846782102230096FEF74D
:1030C00051FA4FF45B40ADF806000DF106022846B8
:1030D000782102230096FEF745FA0DF106022846F4
:1030E00078210223ADF806800096FEF73BFA4FF4F4
:1030F0000D40ADF806000DF10602284678210223A6
:103100000096FEF72FFA4FF4A050ADF806000DF12F
:1031100006022846782102230096FEF723FA4FF490
:103120002F40ADF806000DF1060228467821022353
:103130000096FEF717FA4FF43850ADF806000DF17F
:1031400006022846782102230096FEF70BFA40F289
:103150006410C2F200004FF48061FDF7C9FA00F07C
:10316000B5F840F20010C2F20000C0F8024001249D
:10317000204602B0BDE8F0812DE9F04F89B040F261
:103180000015C2F20005B5F802E091F8008008EBE6
:103190000E077F2F04D8AB884E78F7183F2F03D93E
:1031A000002009B0BDE8F08F002E009066D02D7889
:1031B0002038B5FA85F77C09B2FA82F702907809CF
:1031C0000790002D18BF01254868121BB2FA82F241
:1031D000019000275009444608950690CDE9033137
:1031E00004E000BF00240137B74247D2002CF9D0D9
:1031F000DA1995B23F2DF6D80298019B704303EB84
:10320000400030F817A002F00700012303FA00F590
:103210004FF4607091F8008000EA021B6FEA050C21
:103220000022059703E000BF0132424520D20EEB99
:1032300002061FFA86F9B9F17F0FF5D846EA0B06A8
:1032400040F264100AFA02F1B6B2C2F200000904B8
:10325000835D0699DDE9077458BF87EA040103EA34
:103260000C04002918BF43EA05048455DCE700BFBD
:103270000499039B4E78059F4446B4E740F2001141
:103280005EFA88F0C2F2000148805DF8240BBDE8C8
:10329000F08F00000378002B04BF0020704770B54A
:1032A00014460D46461C00BFD8B229462246FFF7F9
:1032B00063FF16F8011C884204D116F8013B002B6D
:1032C000F2D10021BDE87040084670472DE9F04F6B
:1032D000C1B00DF1040B40F268560BF101094FF03B
:1032E00000086FF07F050A24C2F200064FF0000AC2
:1032F00040F264108035C2F200002F184AF0B0008E
:103300008DF80500304678215A4602238DF8048056
:103310000094FEF727F9304678215A460223ADF88B
:1033200004800094FEF71EF94FF48050ADF80400BD
:10333000304678215A4602230094FEF713F94020C4
:103340008DF80400484639468022FDF784F930465E
:1033500078215A4681230094FEF704F9B5F5607F81
:103360000AF1010AC4D141B0BDE8F08F70470000F6
:10337000FEF720BA4EF68850CEF2000001684FF0FA
:10338000000C41F47001016043F60001C4F2020137
:103390000A6842F001020A60C1F808C00B684FF6E3
:1033A000FF72CFF6F6621A400A6043F21002C2F2D0
:1033B00000424A600A6822F480220A60C1F80CC008
:1033C0004FF0006140F8801C7047000010B540F2DB
:1033D000FF7E0368C4F2000E40F2000C7045C4F298
:1033E000010C1DDD40F60002C4F20002904220D024
:1033F00060451ED040F60042C4F20002904218D050
:103400004FF6FF72C4F2000290421CDC704525DCCE
:10341000B0F1804F3AD040F20042C4F2000233E0F3
:10342000B0F1804F05D040F20042C4F20002904259
:10343000E6D14A6823F0700313434FF6FF72C4F2DB
:1034400000029042E2DD44F2FF32C4F201029042F7
:1034500010DC60451AD044F2000213E040F600028E
:10346000C4F20002904211D040F60042C4F20002C1
:103470000AE000BF44F60002C4F20102904205D007
:1034800044F20042C4F20102904203D1CA6823F41C
:103490004073134323F080024B69D1F800E08C683D
:1034A0001A4360450260C462C0F828E002D109698D
:1034B000CCF83010012141610169C90708BF10BD76
:1034C000016921F00101016110BD0000B0B50446A1
:1034D000006804F108030ECB0569194325F4405533
:1034E0002A4302616269E3691143C268194349F2E0
:1034F0000C639A431143C1604169A26921F4407190
:1035000041F20043114340F48062C4F201039A4245
:10351000416103D1FEF77AFB02E000BFFEF762FBD8
:10352000E1694FF69C7563681922C0F6FF75B1F525
:10353000004FA0FB02011FD15A00DB0FFCF7B8FEC1
:1035400048F21F51C5F2EB11A0FB01235A0905F106
:10355000805302FB0300322303EBC000A0FB0101F8
:103560004FF4F87000EA111000EB0210C1F34211A1
:10357000084421688860B0BD9A009B0FFCF798FE54
:1035800048F21F51C5F2EB11A0FB01235A0902FBBF
:103590000500322303EB0010A0FB0101F02000EA3C
:1035A000511000EB0210C1F34311084421688860F8
:1035B000B0BD0000FEE7000096B043F6300547F2CC
:1035C0000006C4F20205C4F20006FEF701F90AACD7
:1035D00020463021FDF78CF800270897CDE90677C3
:1035E000CDE9047703972869022140F080502861D3
:1035F000286900F08050039003980397306861F3C6
:103600008F3030603068102100F440400390039800
:103610000A200A9001200D90CDE90E102046109747
:10362000FEF740FB10B172B6FEE700BF4FF48050CA
:103630004FF00F09CDE9070704A80021CDE9049751
:103640000697FEF71DFA18B172B600BFFEE700BF7D
:1036500000270E97CDE90C77CDE90A770497286803
:1036600006F5CC3440F004002860286842F60008D3
:1036700000F0040004900498049728680F2140F09B
:10368000800028602868002200F0800004900498E0
:1036900004972868C4F2000840F0010028602868F8
:1036A00000F00100049004980497286840F002009C
:1036B0002860286800F00200049004982046FDF776
:1036C000FBFB4FF400500AAD0A904FF4881A2046D5
:1036D0002946CDE90BA7FDF719FB0120CDE90B0722
:1036E00020462946CDF828900D97FDF70FFB1320B3
:1036F000CDE90A0A06F5C83029460C97FDF706FB06
:10370000062000210022FEF7D1F80620FEF7BCF8C3
:10371000072000210022FEF7C9F80720FEF7B4F8C1
:103720000A2000210022FEF7C1F80A20FEF7ACF8BB
:1037300040F2685008F53051C2F2000041F6802294
:103740004FF48043C0F2060280E88600C0E90373AC
:10375000C0E90577C0E90777FDF7BAFB10B172B68B
:10376000FEE700BF40F2BC50C2F200004FF08041C3
:103770004FF0FF320D97CDE90B77CDE90477C0E923
:103780000017C0E9027207618761FEF765FD18B195
:1037900072B600BFFEE700BF4FF480500A9040F2BF
:1037A000BC500DF1280AC2F200005146FEF79AFD06
:1037B00010B172B6FEE700BF40F2BC50C2F200008A
:1037C00004A9FEF7FFFC18B172B600BFFEE700BF08
:1037D00040F2046006F52041C2F2000000250C23EF
:1037E0004FF4E13280E82600C0E90355C0E9053511
:1037F000C561FEF747FE18B172B600BFFEE700BF15
:1038000040F20816C2F20006304640F8388F7F2199
:10381000FF22C0E90151C0E90325C0E90555FEF7C3
:1038200017FC18B172B600BFFEE700BFFFF722FB1E
:1038300040F26850C2F20000FDF7BEF9FFF7B0F9A0
:1038400000204FF00008FFF7FFFA00200021FFF7EB
:1038500009FB45F28C1B40F29405C0F6000BC2F246
:103860000005584629460122FFF714FD00201421C7
:10387000FFF7F8FA45F26F10C0F600002946012262
:10388000FFF708FDFFF722FDC648354645F8180F3B
:10389000C4A0031D007C0ECB28742846C5E9011284
:1038A000EB60FCF7B9FE82B240F20460C2F20000A5
:1038B00029466423FEF752FE06F10805344650E01F
:1038C0000020FFF7C1FA00200021FFF7CBFA45F2F4
:1038D000641040F28C01C0F60000C2F20001012227
:1038E000FFF7D8FCFFF7F2FC04F11800CCA12A4640
:1038F000FCF756FD04F118063046FCF78DFE82B247
:1039000040F20460C2F2000031466423FEF726FE56
:103910004FF4FA6084F80080C4E90288FDF7D4F916
:103920000020FFF791FA00200021FFF79BFA40F2F8
:103930009406C2F20006584631460122FFF7AAFC5F
:1039400000201421FFF78EFA45F26F10C0F6000038
:1039500031460122FFF79EFCFFF7B8FC0A20FDF775
:10396000B3F94FF0FF30FFF713FA217800286070A9
:103970004AD0032948D86854207A4A1C002922706A
:10398000CDF828808DF83080CDF82C808DF8280077
:103990000FBF012320208DF829000223D9B1677AB7
:1039A000581C0AEB0306012937701EBF20270AF8AE
:1039B0000070981C022A0ED0A77A431C03290AF82B
:1039C000007022BF20210AF80310831C032A1CBFA9
:1039D000E07A0AF8030000202821FFF743FA40F2BA
:1039E0008C06C2F2000674A031460122FFF752FC99
:1039F00000202821FFF736FA504631460122FFF712
:103A000049FCFFF763FC21780429A7D140F21C0090
:103A1000C2F20000077884F80C80002F3FF450AF0A
:103A200000F11A06A6F1180948462946FCF788FE57
:103A300020B1013F06F12206F4D141E740F268507F
:103A400004F11001C2F20000FDF75AF8607CA17C7D
:103A50006FF03102322838BF013938BF0A221044D2
:103A60006FF0060245F27F180729B8BF11221144F2
:103A7000A6F1100A04F1180BC0F60008A1746074D6
:103A8000CBB2C7B25846414652460097FCF788FC75
:103A9000304610F8021B002948D0D6F802002169F0
:103AA000C0F30742C1F30743C0F30720C1F3072166
:103AB0009A1A4FF00008C2EB0212081A86F800802A
:103AC00000EB82060020002E48BF06F5B466FFF723
:103AD000BBF900200021FFF7C5F940F28C07C2F2C4
:103AE000000738A039460122FFF7D4FB002014213B
:103AF000FFF7B8F9584636A152463346FCF750FC5A
:103B0000584639460122FFF7C5FBFFF7DFFB584651
:103B100032A14A4653460096FCF742FC45F28C1B04
:103B20000DF1280AC0F6000BE4E600BFD4E9041248
:103B300001234260016000203370FFF785F9002007
:103B40000021FFF78FF940F29406C2F200062AA086
:103B500031460122FFF79EFB00201421FFF782F976
:103B6000677CA37C5846414652460097FCF718FCF8
:103B7000584631460122FFF78DFBFFF7A7FB677C14
:103B8000A67C58461FA14A465346CDE90067FCF77C
:103B900007FC45F28C1B0DF1280AC0F6000B4FF014
:103BA0000008A7E653697374656D204261736C6108
:103BB00064690D0A00000000202020202020202021
:103BC0000000000043494B4953204F4B21000000A7
:103BD0002573202530326420646B000043696B69D3
:103BE000733A2025732025732C20537572653A2073
:103BF000256420646B0D0A004749524953204F4BFE
:103C00002100000047697269733A202573202573EB
:103C100020253032643A253032640D0A000000005D
:103C20004B756C6C616E6963692062756C756E6151
:103C30006D6164693A2025730D0A000030380A2846
:103C400001D20120704700207047F1EE100A4FF6B4
:103C5000FF71C0F2C03120EA010040F04070E1EE97
:103C6000100A704704000008000000000000000275
:103C7000000100001000000000000000000102032D
:103C80000406070809000000000102030400000008
:103C90000000000000000000000000000000000024
:103CA0000000000000000000000000000000000014
:103CB00000000000000C000C000C000C000C000CBC
:103CC000000C000C000C000C000C0000000C000CA0
:103CD0000000000000000000001B001B001B001B78
:103CE000001B0000000000000000000000000000B9
:103CF0000000000000000000000000008019801992
:103D000080198019C07FC07F80190033C07FC07FB9
:103D100000330033003300330000000000000000D7
:103D2000001E003F807580650074003C001E000787
:103D30008005806580658075003F001E00040004DA
:103D400000000000007000D840D8C0D880D90073AF
:103D50000006000C801BC036C066C046C00680034B
:103D60000000000000000000001E003F0033003390
:103D70000033001E000CC03CC0668063806180631D
:103D8000C03E801C0000000000000000000C000C81
:103D9000000C000C000C00000000000000000000FF
:103DA0000000000000000000000000000000800093
:103DB00000010003000600060004000C000C000CCB
:103DC000000C000C000C00040006000600030001BB
:103DD0008000002000100018000C000C00040006F9
:103DE000000600060006000600060004000C000C99
:103DF0000018001000200000000C002D003F001EE5
:103E0000003300000000000000000000000000007F
:103E100000000000000000000000000000000000A2
:103E2000000C000C000C000CC0FFC0FF000C000CCC
:103E3000000C000C0000000000000000000000006A
:103E40000000000000000000000000000000000072
:103E50000000000000000000000C000C0004000442
:103E6000000800000000000000000000000000004A
:103E700000000000001E001E000000000000000006
:103E80000000000000000000000000000000000032
:103E90000000000000000000000000000000000022
:103EA000000C000C000000000000000000030003F4
:103EB00000030006000600060006000C000C000CC3
:103EC000000C00180018001800000000000000009E
:103ED000001E003F0033806180618061806D806DD5
:103EE0008061806180610033003F001E000000009F
:103EF000000000000006000E001E0036002600062E
:103F00000006000600060006000600060006000681
:103F10000000000000000000001E003F8073806170
:103F20008061800100030006000C00180030006072
:103F3000807F807F0000000000000000001C003E29
:103F4000006300630003000E000E00038001800187
:103F500080618073003F001E000000000000000030
:103F60000006000E000E001E001E00160036003671
:103F70000066807F807F00060006000600000000CB
:103F800000000000007F007F006000600060006EA5
:103F9000007F80638001800180618073003F001E8C
:103FA0000000000000000000001E003F8033806120
:103FB0000060006E007F807380618061806180336B
:103FC000003F001E0000000000000000807F807F96
:103FD00080010003000300060006000C000C000C2A
:103FE0000008001800180018000000000000000081
:103FF000001E003F8063806180610021001E003F41
:104000008061806180618061003F001E00000000CF
:1040100000000000001E003F00738061806180612D
:104020008073803F801D800180610073003F001E0F
:104030000000000000000000000000000000000080
:10404000000C000C00000000000000000000000058
:10405000000C000C00000000000000000000000048
:10406000000000000000000C000C00000000000038
:1040700000000000000C000C000400040008000018
:1040800000000000000080008003000E0038006087
:104090000038000E800380000000000000000000D7
:1040A000000000000000000000000000807F807F12
:1040B00000000000807F807F000000000000000002
:1040C00000000000000000000000000000000040B0
:1040D0000070001C000780010007001C00700040F9
:1040E000000000000000000000000000001F803FF2
:1040F000C071C060C000C00180030007000E000C4A
:10410000000C0000000C000C00000000000000008B
:10411000001E003F803180718063806F806D806DF4
:10412000806F806700600032003E001C00000000CD
:1041300000000000000E000E001B001B001B001BF7
:1041400080318031803F803F8031C060C060C0607E
:104150000000000000000000007C007E006300639F
:1041600000630063007E007E006380618061806385
:10417000007F007E0000000000000000001E003FE5
:10418000803180610060006000600060006000605D
:1041900080618031003F001E000000000000000030
:1041A000007C007F0063806380618061806180614A
:1041B0008061806100630063007E007C000000007D
:1041C00000000000807F807F006000600060006071
:1041D000007F007F0060006000600060807F807F63
:1041E0000000000000000000807F807F0060006011
:1041F00000600060007F007F006000600060006081
:10420000006000600000000000000000001E003F91
:104210008031806100600060006080638063806145
:1042200080618031803F001E00000000000000001F
:10423000806180618061806180618061807F807F3A
:104240008061806180618061806180610000000028
:1042500000000000003F003F000C000C000C000CB0
:10426000000C000C000C000C000C000C003F003F88
:10427000000000000000000080018001800180013A
:1042800080018001800180018001806180618073F4
:10429000003F001E0000000000000000C0608061C0
:1042A000006300660066006C0078007C00660066B3
:1042B000006380618061C0600000000000000000B9
:1042C00000600060006000600060006000600060EE
:1042D0000060006000600060807F807F0000000060
:1042E00000000000C071C071C07BC07AC06AC06AA3
:1042F000C06EC064C060C060C060C060C060C060AC
:1043000000000000000000008071807180798079D9
:104310008079806D806D806D806580678067806743
:10432000806380630000000000000000001E003F6A
:104330000033806180618061806180618061806123
:1043400080610033003F001E0000000000000000FC
:10435000007E007F80638061806180618063007F78
:10436000007E0060006000600060006000000000EF
:1043700000000000001E003F00338061806180610A
:10438000806180618061806580670033803F401E6E
:104390000000000000000000007E007F806380615C
:1043A00080618063007F007E00660063006380613F
:1043B0008061C0600000000000000000000E001FCF
:1043C0008031803100300038001E0007800380619A
:1043D00080618031003F001E0000000000000000EE
:1043E000C0FFC0FF000C000C000C000C000C000C07
:1043F000000C000C000C000C000C000C0000000075
:104400000000000080618061806180618061806166
:10441000806180618061806180618073003F001EE7
:104420000000000000000000C060C060C06080317B
:1044300080318031001B001B001B001B000E000E92
:10444000000E00040000000000000000C0C0C0C05A
:10445000C0C0C0C0C0C0C0CC804C804C805E805208
:1044600080528073806180610000000000000000C5
:10447000C0C0806080610033003B001E000C000C57
:10448000001E001F003B80718061C0C00000000062
:1044900000000000C0C08061806100330033001E56
:1044A000001E000C000C000C000C000C000C000C9A
:1044B0000000000000000000803F803F80010003FA
:1044C00000030006000C000C00180018003000600B
:1044D000807F807F000000000000000F000F000CB4
:1044E000000C000C000C000C000C000C000C000C6C
:1044F000000C000C000C000C000C000F000F000062
:10450000001800180018000C000C000C000C00062D
:104510000006000600060003000300030000000080
:104520000000001E001E0006000600060006000631
:10453000000600060006000600060006000600064B
:104540000006001E001E0000000C000C001E0012E1
:104550000033003380618061000000000000000033
:10456000000000000000000000000000000000004B
:10457000000000000000000000000000000000003B
:1045800000000000000000000000E0FF000000004C
:1045900000380018000C00000000000000000000BF
:1045A000000000000000000000000000000000000B
:1045B000000000000000000000000000001F803F1D
:1045C00080618001801F803F80618063807FC03870
:1045D000000000000000000000600060006000605B
:1045E000006E007F80738061806180618061807374
:1045F000007F006E000000000000000000000000CE
:1046000000000000001E003F8073806100600060B9
:1046100080618073003F001E000000000000000069
:104620008001800180018001801D803F8073806156
:104630008061806180618073803F801D0000000088
:10464000000000000000000000000000001E003F0D
:1046500000738061807F807F00608071003F001E5A
:104660000000000000000000C007C00F000C000C9C
:10467000807F807F000C000C000C000C000C000CF4
:10468000000C000C00000000000000000000000012
:104690000000801D803F8073806180618061806147
:1046A0008073803F801D80018063007F003E00009A
:1046B0000060006000600060006F807F807180613A
:1046C00080618061806180618061806100000000A4
:1046D000000000000006000600000000003E003E52
:1046E000000600060006000600060006000600069A
:1046F0000000000000000006000600000000003E70
:10470000003E000600060006000600060006000641
:10471000000600060046007E003C000000600060CD
:1047200000600060806100630066006C007C0076C1
:10473000006300638061C0600000000000000000B2
:10474000003E003E000600060006000600060006C9
:104750000006000600060006000600060000000035
:1047600000000000000000000000000080DDC0FF2D
:10477000C0CEC0CCC0CCC0CCC0CCC0CCC0CCC0CCD7
:104780000000000000000000000000000000000029
:10479000006F807F80718061806180618061806155
:1047A0008061806100000000000000000000000047
:1047B00000000000001E003F807380618061806106
:1047C00080618073003F001E0000000000000000B8
:1047D000000000000000006E007F80738061806137
:1047E000806180618073007F006E00600060006007
:1047F00000600000000000000000801D803F80730A
:1048000080618061806180618073803F801D800154
:104810008001800180010000000000000000000015
:104820000067803F00390030003000300030003039
:104830000030003000000000000000000000000018
:1048400000000000001E803F80610060007F803F0C
:1048500080018061007F001E000000000000000059
:104860000000000800180018007F007F00180018E2
:104870000018001800180018801F800F00000000AA
:104880000000000000000000000000008061806166
:10489000806180618061806180618063807F803D14
:1048A0000000000000000000000000000000000008
:1048B000C060803180318031001B001B001B000E66
:1048C000000E0006000000000000000000000000D4
:1048D0000000000080DD80DD80DD005500550055C2
:1048E0000077007700220022000000000000000096
:1048F0000000000000000000806100330033001E53
:10490000000C000C001E003300338061000000002A
:104910000000000000000000000080618061803124
:1049200000330033001B001B001B000E000E000EA6
:10493000001C007C0070000000000000000000006F
:10494000C07FC07F800100030006000C001800300B
:10495000C07FC07F000000000000800380070006C9
:104960000006000600060006000E001C001C000EDB
:104970000006000600060006000680078003000609
:1049800000060006000600060006000600060006F7
:1049900000060006000600060006000600060006E7
:1049A00000060038003C000C000C000C000C000C51
:1049B000000E00070007000E000C000C000C000C9D
:1049C000000C003C00380000000000000000000067
:1049D000000000008038807F0047000000000000D9
:1049E00000000000000000000000000000000000C7
:1049F00000000000000000000000000000000010A7
:104A00000010001000100010001000000010000046
:104A1000000000280028002800000000000000001E
:104A200000000000000000240024007C0024004856
:104A3000007C00480048000000000038005400508E
:104A4000003800140054005400380010000000200A
:104A500000540058003000280054001400080000E2
:104A60000000001000280028001000340048004812
:104A700000340000000000100010001000000000D2
:104A800000000000000000000000000800100020EE
:104A9000002000200020002000200010000800203E
:104AA00000100008000800080008000800080010B6
:104AB0000020001000380010002800000000000056
:104AC0000000000000000000000000100010007C4A
:104AD00000100010000000000000000000000000B6
:104AE0000000000000000000001000100010000096
:104AF000000000000000000000380000000000007E
:104B000000000000000000000000000000000000A5
:104B10000010000000000008000800100010001045
:104B20000010002000200000000000380044004475
:104B3000005400440044004400380000000000100D
:104B40000030005000100010001000100010000095
:104B50000000003800440044000400080010002059
:104B6000007C00000000003800440004001800042D
:104B7000000400440038000000000008001800286D
:104B800000280048007C0008000800000000007CAD
:104B90000040004000780004000400440038000099
:104BA0000000003800440040007800440044004405
:104BB000003800000000007C000400080010001015
:104BC00000200020002000000000003800440044C5
:104BD0000038004400440044003800000000003861
:104BE000004400440044003C00040044003800003D
:104BF00000000000000000100000000000000000A5
:104C00000010000000000000000000000010000084
:104C10000000000000100010001000000000000C58
:104C2000003000400030000C0000000000000000D8
:104C300000000000007C0000007C0000000000007C
:104C40000000000000000060001800040018006070
:104C500000000000000000380044000400080010BC
:104C60000010000000100000000000380044004C5C
:104C70000054005C004000400038000000000010BC
:104C80000028002800280028007C00440044000080
:104C900000000078004400440078004400440044D0
:104CA0000078000000000038004400400040004050
:104CB000004000440038000000000070004800443C
:104CC0000044004400440048007000000000007CE4
:104CD00000400040007C004000400040007C00009C
:104CE0000000007C00400040007800400040004090
:104CF0000040000000000038004400400040005C1C
:104D00000044004400380000000000440044004417
:104D1000007C0044004400440044000000000038CF
:104D200000100010001000100010001000380000EB
:104D30000000000400040004000400040004004417
:104D4000003800000000004400480050006000509F
:104D500000480048004400000000004000400040BF
:104D60000040004000400040007C00000000004483
:104D7000006C006C005400440044004400440000F7
:104D8000000000440064006400540054004C004CD7
:104D90000044000000000038004400440044004487
:104DA0000044004400380000000000780044004443
:104DB000004400780040004000400000000000383F
:104DC00000440044004400440044005400380004FF
:104DD0000000007800440044004400780048004887
:104DE000004400000000003800440040003000088B
:104DF00000040044003800000000007C0010001097
:104E0000001000100010001000100000000000440E
:104E100000440044004400440044004400380000C2
:104E2000000000440044004400280028002800102E
:104E300000100000000000440044005400540054DE
:104E4000006C002800280000000000440028002812
:104E5000001000100028002800440000000000445A
:104E6000004400280028001000100010001000006E
:104E70000000007C0004000800100010002000402A
:104E8000007C00000000001800100010001000104E
:104E9000001000100010001000180020002000106A
:104EA0000010001000100008000800000000003092
:104EB0000010001000100010001000100010001072
:104EC000003000100028002800440000000000000E
:104ED00000000000000000000000000000000000D2
:104EE000000000000000000000FE00200010000094
:104EF00000000000000000000000000000000000B2
:104F0000000000380044003C0044004C0034000025
:104F10000000004000400058006400440044006469
:104F2000005800000000000000000038004400406D
:104F30000040004400380000000000040004003479
:104F4000004C00440044004C00340000000000000D
:104F5000000000380044007C00400044003800009D
:104F60000000000C0010007C001000100010001069
:104F7000001000000000000000000034004C00445D
:104F80000044004C00340004007800400040005809
:104F9000006400440044004400440000000000108D
:104FA0000000007000100010001000100010000041
:104FB0000000001000000070001000100010001031
:104FC0000010001000E00040004000480050006069
:104FD0000050004800440000000000700010001065
:104FE0000010001000100010001000000000000071
:104FF0000000007800540054005400540054000095
:105000000000000000000058006400440044004418
:10501000004400000000000000000038004400448C
:105020000044004400380000000000000000005868
:105030000064004400440064005800400040000048
:1050400000000034004C00440044004C00340004D4
:1050500000040000000000580064004000400040D0
:105060000040000000000000000000380044003054
:1050700000080044003800000000002000200078F4
:105080000020002000200020001800000000000088
:1050900000000044004400440044004C0034000080
:1050A0000000000000000044004400280028002800
:1050B00000100000000000000000005400540054E4
:1050C000006C0028002800000000000000000044E0
:1050D000002800100010002800440000000000001C
:1050E00000000044004400280028001000100010B8
:1050F000006000000000007C00080010002000405C
:10510000007C0000000000180010001000100020BB
:1051100000200010001000100018001000100010F7
:1051200000100010001000100010001000100030DF
:1051300000100010001000080008001000100010FF
:1051400000300000000000000074004C000000006F
:105150000000000000000100020010000100020039
:10516000040008004B4159495420594F4B21004E2F
:10517000756D61726120476972696E697A3A0025BE
:105180007320253032643A25303264004B757475D3
:105190007068616E65796520476972697300000007
:1051A000C051000800000020A0000000F801000825
:1051B00060520008A0000020B00B00001802000898
:1051C00000000240000002400000024000080240CF
:1051D000000802400008024000080240030031308D
:1051E000303100000000416C690000000000000048
:1051F00000000000000000000000000000000000AF
:105200003130303200000000417973650000000049
:10521000000000000000000000000000000000008E
:10522000000031303033000000005A65796E65703F
:10523000000000000000000000000000000000006E
:105240000000000001000000100000000B12000030
:105250008E3C0008070A0000EA4900080024F40018
:040000050800019559
:00000001FF
